:100000000C942A000C943C000C943C000C943C0092
:100010000C943C000C943C000C943C000C943C0070
:100020000C9483010C943C000C943C000C943C0018
:100030000C943C000C943C000C943C000C943C0050
:100040000C943C000C943C000C943C000C943C0040
:100050000C943C0011241FBECFE5D4E0DEBFCDBF21
:1000600020E0A2E6B0E001C01D92AE36B207E1F793
:100070000E946C020C94F4020C9400006F937F9326
:10008000AF93BF93B6D08F939F938FE090E093D0C0
:10009000B0D07F916F9186239723A0E6B0E07D9149
:1000A0006C918C939E937095609586239723BF9156
:1000B000AF917F916F9108958FEF809360000895C5
:1000C0008F939F9388E290E076D080E382BB939AEF
:1000D000939887E290E079D08F939F9388EE93E096
:1000E00074D09F918F9180E382BB939A939887E21B
:1000F00090E06BD08F939F9388EE93E066D09F91B2
:100100008F9180E282BB939A939887E290E05DD0D2
:100110008F939F9388EE93E058D09F918F9188E2C0
:10012000A6D08CE0A4D081E0A2D08AEF95E04DD09B
:1001300086E09DD09F918F9108958F9381E097D015
:100140008F9108958F9387E488D081E486D083E5EA
:1001500084D080E282D084E480D085E47ED084E5BF
:100160007CD085E47AD083E478D084E576D085E4C9
:1001700074D084E472D08F9108958F9383E46DD00E
:100180008CE46BD085E469D081E467D082E565D0EA
:100190008F9108958F9387E560D085E45ED08CE4DD
:1001A0005CD083E45AD08FE458D08DE456D085E4F7
:1001B00054D08F9108958F939F9386EE93E005D04E
:1001C0009F918F910197B9F7089501970000000062
:1001D00000000000D1F7089595BB8F939F9384EFA3
:1001E00091E0F3DF9F918F910000000083B38F7047
:1001F0000895AF93BF9390E1EFDF8295B82F90E21F
:10020000EBDFB80F90E4E8DF8295A82F90E8E4DFF9
:10021000A80FCD01AA27A5BBBF91AF9108958F93D9
:100220009F9380E797E1D1DF9F918F918F9390B358
:100230009F70807F890F82BB939A93988F939F932F
:1002400080E797E1C2DF9F918F918F918295807FA8
:10025000890F82BB939A939808958F939F93929A54
:10026000DEDF8BE290E0B1DF9F918F9108958F9355
:100270009F939298D4DF87E290E0A7DF9F918F91C0
:10028000089580FD20C081FD20C082FD20C083FD37
:1002900020C084FD20C085FD20C086FD20C087FDD4
:1002A00020C090FD20C091FD20C092FD20C093FD94
:1002B00020C094FD20C095FD20C096FD20C099234C
:1002C00004F581E408958AE2089580E3089583E2C5
:1002D000089584E4089587E3089588E3089589E301
:1002E000089583E4089584E3089585E3089586E3FB
:1002F000089582E4089581E3089582E3089583E3F5
:10030000089580E008951F920F920FB60F92112466
:100310002F933F934F935F936F937F938F939F930D
:10032000AF93BF93EF93FF93809168009091690022
:10033000892B09F067C08091640084FF45C08091DB
:10034000660090916700019751F00E949D000E9405
:10035000A20081E090E09093670080936600809116
:100360006200909163000597B4F488B38078282FD9
:1003700030E030936D0020936C0090916400892BE5
:1003800088BB809162009091630001969093630016
:100390008093620037C088B38078282F30E0309394
:1003A0006D0020936C0088BB809162009091630087
:1003B000019690936300809362000A9719F510925A
:1003C0006300109262001EC08091660090916700E9
:1003D000892B41F00E949D000E94BD001092670091
:1003E0001092660088B38078282F30E030936D003B
:1003F00020936C0090916400892B88BB109263005D
:100400001092620086B1806486B93699FECF84B1BD
:1004100095B190936B0080936A00873121E0920739
:100420003CF08FE790E090936500809364003FC0BC
:10043000823F91053CF08FE390E0909365008093BC
:10044000640035C08D3C91053CF08FE190E09093C5
:100450006500809364002BC0883A91053CF08FE0E2
:1004600090E0909365008093640021C083389105EB
:100470003CF087E090E0909365008093640017C0A3
:100480008E3591053CF083E090E090936500809379
:1004900064000DC0C9973CF081E090E09093650046
:1004A0008093640004C010926500109264008FEC89
:1004B0008DBD8CE28CBDFF91EF91BF91AF919F916B
:1004C0008F917F916F915F914F913F912F910F90FD
:1004D0000FBE0F901F90189580EF84BB15BA8FEF59
:1004E00087BB1ABA81BB80E487B987E886B983E005
:1004F0008EBD8FEC8DBD8CE28CBD84E089BF0E94E7
:100500005C000E94600082E090E09093670080931E
:1005100066001092690010926800789480E090E084
:1005200002C00E943E000097E1F30E944101C82FE3
:1005300080E090E002C00E943E000097E1F30E943C
:100540004101C43309F047C0853309F047C081E059
:1005500090E09093690080936800809164008068C7
:1005600088BB0E949D000E94CA00C0E0D0E007C086
:100570000E943E0080916400806888BB2196CE3B3B
:10058000D105B4F382E090E0909367008093660019
:100590008091640088BB1092690010926800BECF01
:1005A00088B3806888BBC0E0D0E003C00E943E00F2
:1005B0002196C831D105D4F388B38F7788BBC0E0CA
:1005C000D0E003C00E943E002196C831D105D4F38B
:1005D0000F5F1F4F05C000E010E002C000E010E018
:0C05E00004301105ECF29ACFF894FFCF24
:0205EC0002000B
:00000001FF
