:020000020000FC
:0200000042C1FB
:0200200098C185
:10003800B3C180E487B98FE886B908958F939F93F9
:1000480086EE93E005D09F918F910197B9F70895B7
:1000580001970000000000000000D1F7089595BB4B
:100068008F939F9384EF91E0F3DF9F918F9100002E
:10007800000083B38F700895AF93BF9390E1EFDFD3
:100088008295B82F90E2EBDFB80F90E4E8DF829515
:10009800A82F90E8E4DFA80FCD01AA27A5BBBF9140
:1000A800AF9108956F937F93AF93BF93E5DF8F93DD
:1000B8009F938FE090E0C2DFDFDF7F916F9186230F
:1000C8009723A0E6B0E07D916C918C939E937095F8
:1000D800609586239723BF91AF917F916F91089583
:1000E800AF93BF93DC018AE2A0FD2FC080E3A1FD9E
:1000F8002CC083E2A2FD29C084E4A3FD26C087E3C7
:10010800A4FD23C088E3A5FD20C089E3A6FD1DC08A
:1001180083E4A7FD1AC084E3B0FD17C085E3B1FDF1
:1001280014C086E3B2FD11C082E4B3FD0EC081E3C2
:10013800B4FD0BC082E3B5FD08C083E3B6FD05C07E
:1001480081E4B7FD02C0882700C0BF91AF91089530
:100158008F939F9380E797E17BDF9F918F918F9398
:1001680090B39F70807F890F82BB939A93988F93E7
:100178009F9380E797E16CDF9F918F918F91829594
:10018800807F890F82BB939A939808958F939F934A
:10019800929ADEDF8BE290E05BDF9F918F9108956A
:1001A8008F939F939298D4DF87E290E051DF9F91DD
:1001B8008F9108958F939F9388E290E03FDF80E3CB
:1001C80082BB939A939887E290E042DF8F939F9344
:1001D80088EE93E03DDF9F918F9180E382BB939AF5
:1001E800939887E290E034DF8F939F9388EE93E0B3
:1001F8002FDF9F918F9180E282BB939A939887E239
:1002080090E026DF8F939F9388EE93E021DF9F9104
:100218008F9188E2C5DF8CE0C3DF81E0C1DF8AEF20
:1002280095E016DF86E0BCDF9F918F91089581E00D
:10023800B7DF83E4ABDF8CE4A9DF85E4A7DF81E4E3
:10024800A5DF82E5A3DF089581E0AADF87E49EDFCA
:1002580081E49CDF83E59ADF80E298DF84E496DF1F
:1002680085E494DF84E592DF85E490DF83E48EDF24
:1002780084E58CDF85E48ADF84E488DF08958FE5F0
:100288008DBF84E08EBF80EF84BB882785BB8ABB87
:100298008FEF87BB81BB80936000882720E08ADFCF
:1002A800C8DE83E08EBD8FEC8DBD8CE28CBD84E012
:1002B80089BF20E0C0E032E0E0E07894F3DE10DFB0
:1002C8008030E1F3482F4053EDDE0ADF8030E1F360
:1002D800582F5053443039F5553029F5E1E032E0D4
:1002E80081E05EDF40E8422B48BB87E54FDF85E4CD
:1002F8004DDF8CE44BDF83E449DF8FE447DF8DE497
:1003080045DF85E443DF80E241DF4EEBF0E8F22B86
:10031800F8BB4A95C7DE4030C9F7422F48BB81E099
:100328003FDFE0E0CBCF44E04A95C0E858E1C79A08
:100338005A95B8DE5030D9F758E1C7985A95B2DEC9
:100348005030D9F7403081F7B9CFE13011F100E1F1
:100358000223003159F0303009F069DF30E0D8B3BA
:10036800D078D22BD8BB10E00C94CD01313009F0F5
:100378006BDF31E01395163030F4D8B3D078D22B38
:10038800D8BB0C94CD01D8B3D078D8BB1A3009F4B7
:1003980010E0369A789408950F931F9304B115B11D
:1003A80013702FE7113098F42FE3023F80F42FE108
:1003B8000D3C68F42FE0083A50F427E0033838F48D
:1003C80023E00E3520F421E0093308F420E08FEC17
:0E03D8008DBD8CE28CBD78941F910F9108951D
:00000001FF
